:1000000005308A00692D00000C00D6376C3A613546
:10001000651DA0122E19663B00004137E73AEC3708
:100020003A1025173233A53120102000D6376C3A0C
:100030006135651DA0122E19663B0D050000413784
:10004000E73AEC373A1025173233A5310D05000099
:100050003A3084008313000803193C280130F8006B
:10006000F701F70B3128F80B30284A30F700F70B6F
:1000700037283A28800B2E280800410EF039F70067
:100080000F3008057704880000000814472808107E
:1000900008000808F700080E0F39F800080083165A
:1000A000081088100811831288100F308316080575
:1000B000F038880083120815000008140000492059
:1000C0007808C100081000000814000049207808D2
:1000D000C00008100F308316080588008312410EF7
:1000E000F700F030F70577084004F8007808C00002
:1000F000C01B55283E1C88103E18881400000811AB
:10010000000008103F0EC0000F30C0054008C100BD
:100110003D203F080F39C000C1003D2008002830B5
:10012000AD000C30AE000130AF000630B00008105A
:10013000881008110F3083160805880008108810F1
:1001400008110F308312BA0028200130AC002C08AF
:10015000033C031CB3280330C1003D200530BA0026
:100160002820AC0AA7280230C1003D200530BA0083
:100170002820AC012C08033C031CCA282D302C0776
:10018000840083130008B100BE013108BF004F2076
:10019000AC0ABA288A110A12912D8E30F7002D0868
:1001A000F8002C08F900FA01F808031DE128790885
:1001B000F800F9010830F702F808031DE128F701FB
:1001C000E9280310F81BE828F90DF80DF703E128DA
:1001D000F8138A110A12B82D390803195C29C100D5
:1001E0003D0803195C29C1070318FD287F30C102AF
:1001F000031C5C2903195C2901298130C1070318FC
:100200005C294108F700F801F901FA013A08C50034
:10021000C5173B08C4003C08C3001830C100C20128
:10022000431C2A294008FA07031C1C29F90A031D4C
:100230001C29F80A0319C2173F08F907031C2329D0
:10024000F80A0319C2173E08BB00BB173B08F807A2
:100250000318C217C20DF80CF90CFA0CC50CC40C2B
:10026000C30C0310C10B0F290130F70703185C29D9
:10027000F81B4129C50DFA0DF90DF80DF703031907
:100280005C29C51F5229FA0A031D5229F90A031DC8
:100290005229F80A031D5229F80CF90CFA0CF70A36
:1002A00003195C293A08C2003E08C206C21F5A2937
:1002B000F8176029F8136029F701F801F901FA012C
:1002C000080030080319262ABC0034080319262A1E
:1002D000BC02031C70297F30BC070318262A76292C
:1002E0008130BC02031C262A0319262A3C08F70089
:1002F000F801F901FA01BB013108BA00BA17320856
:10030000B9003308B8001930BC003708B802031828
:1003100099290130B90203189929BA0203189929B9
:10032000BB0203189929BB0ABA0AB90A3708B807E9
:10033000CB293608B9020318B4290130BA020318D0
:10034000B429BB020318B429BB0ABA0A3608B90794
:100350003708B807031CCB29B90A031DCB29BA0AF1
:10036000031DCB29BB0ACB2935088038BA020318F4
:10037000CA290130BB020318CA29BB0A35088038D4
:10038000BA073608B907031CA829BA0A031DA82909
:10039000BB0AA8297A14BC0BCE29D9290310B80DA1
:1003A000B90DBA0DBB0D0310FA0DF90DF80DBD0D09
:1003B00085293D1CE1290310F80CF90CFA0CBD0C41
:1003C000E429F7030319262ABD1B0D2A0310B80DD3
:1003D000B90DBA0DBB0D3708B8020318F929013061
:1003E000B9020318F929BA020318F929BB02031C40
:1003F0001C2A3608B9020318042A0130BA0203186D
:10040000042ABB02031C1C2A35088038BA020318D0
:100410000D2A0130BB02031C1C2AFA0A031D1C2AE8
:10042000F90A031D1C2AF80A031D1C2AF70A0319DE
:10043000262AF80CF90CFA0C3108BC003508BC0669
:10044000BC1F242AF8172A2AF8132A2AF701F801D0
:10045000F901FA0108003B0B2E2A312A4030BC007A
:10046000322ABC0101303A02BC073C088038BD008A
:10047000BE013D08BF004F2008003908073A0319A4
:100480004B2A0B3A0319502A063A0319582A023A02
:1004900003195E2A632A0130BA00BB002B22682AA6
:1004A000BE010130BF004F200230BA002820682A68
:1004B0000130BA000230BB002B22682ABE01103086
:1004C000BF004F20682A0130BE003908BF004F200E
:1004D00008000B08AC008B13831603178C170C1441
:1004E0000000000083120313AC1B8B1703170C08CA
:1004F0007F390319BD2A0313AC0003170D0803133A
:10050000AD0003170F080313AE002C08B9003D22FD
:100510002D0803178D0003132E0803178F000313F4
:100520000B08AF008B13831603178C170C140000F5
:10053000000083120313AF1B8B1703170C0D0E0D56
:100540007F390319BD2A0313AC0003170D080313E9
:10055000AD0003170F080313AE002C08B9003D22AD
:100560002D0803178D0003132E0803178F008D0A23
:1005700003198F0A0313692A031703138A110A1236
:100580001C2E0B08AD008B13831603178C170C144D
:100590000000000083120313AD1B8B170318F82A09
:1005A00003170C087F390313AD0003170D0803135D
:1005B000AE0003170F080313AF002D08B9003D224A
:1005C0002E0803178D0003132F0803178F00031342
:1005D0000B08B0008B13831603178C170C14000044
:1005E000000083120313B01B8B17AC0BF82A172BD8
:1005F00003170C0D0E0D7F390313AD0003170D0803
:100600000313AE0003170F080313AF002D08B90042
:100610003D222E0803178D0003132F0803178F00A8
:100620008D0A03198F0A03100313AC0BC12A0800AB
:100630003908B63CB900FA013A08BD00BA170310F0
:10064000BA0CBB0CBC0CFA0CF90CF80CF70CB90B7F
:100650001F2BBD1F362BF709F809F909FA09F70A0C
:100660000319F80A0319F90A0319FA0A080083188A
:100670003C2B413084008313F701F801F901FA01A2
:10068000C101C201C301C40140083F043E043D044E
:1006900003197A2B2030C5000310B90DBA0DBB0D1C
:1006A000BC0DC10DC20DC30DC40D40084402031D95
:1006B000632B3F084302031D632B3E084202031DC8
:1006C000632B3D084102031C742B3D08C1023E0808
:1006D000031C3E0FC2023F08031C3F0FC302400829
:1006E000031C400FC4020314F70DF80DF90DFA0DA9
:1006F000C50B4C2B41088000840A42088000840A04
:1007000043088000840A4408800008000408B100FF
:100710003008B3000319A52B2F08BC002E08BB001E
:100720002D08BA002C08B900C001BF012030BE005E
:100730008230BD00EC207A08AF007908AE0078085E
:10074000AD007708AC00B30B8C2B2F08BC002E0833
:10075000BB002D08BA002C08B90018237A08AF0096
:100760007908AE007808AD007708AC00AF1FC52B44
:10077000B103B116AC09AD09AE09AF09AC0A031952
:10078000AD0A0319AE0A0319AF0A3B30B8009A301C
:10079000B700CA30B600B5010A30B30030080319FB
:1007A000B10A83142C30840083132F08BC002E0858
:1007B000BB002D08BA002C08B9003808C000370863
:1007C000BF003608BE003508BD0037237808F7089B
:1007D000031DFD2B300A33020319FD2B31080319C9
:1007E000FF2B0F3933020319F72B03182F2CB11BE2
:1007F0002F2C311BFF2B20302B2C2030B105B11EAC
:100800000D2CB1123008031DB1037708B1002D3053
:10081000B9003D223108F700B10130083302031D51
:100820001B2C7708B1002E30B9003D223108F700AB
:100830002030B10500303030B11E2B2CB112300801
:10084000031DB1037708B1002D30B9003D223108F6
:10085000F700B1013030F7077708B9003D22831067
:100860003808BC003708BB003608BA003508B900A4
:10087000C001BF01BE010A30BD0037237A08B800AD
:100880007908B7007808B6007708B500B30BD12B0C
:1008900008000B08AD008B13831603178C170C147C
:1008A0000000000083120313AD1B8B170318812C6B
:1008B00003170C087F390313AD0003170D0803134A
:1008C000AE0003170F080313AF002D080C1E662C93
:1008D00099002E0803178D0003132F0803178F00AC
:1008E00003130B08B0008B13831603178C170C141B
:1008F0000000000083120313B01B8B17AC0B812C7C
:10090000A12C03170C0D0E0D7F390313AD00031737
:100910000D080313AE0003170F080313AF002D08D3
:100920000C1E902C99002E0803178D0003132F081E
:1009300003178F008D0A03198F0A03100313AC0BE2
:10094000492C08000408B1003008B3000319C12C79
:100950002F08BC002E08BB002D08BA002C08B900D7
:10096000C001BF012030BE008230BD00EC207A08FB
:10097000AF007908AE007808AD007708AC00B30B83
:10098000A82C2F08BC002E08BB002D08BA002C088C
:10099000B90018237A08AF007908AE007808AD00D6
:1009A0007708AC00AF1FE12CB103B116AC09AD095B
:1009B000AE09AF09AC0A0319AD0A0319AE0A03194F
:1009C000AF0A3B30B8009A30B700CA30B600B50164
:1009D0000A30B30030080319B10A83142C308400A4
:1009E00083132F08BC002E08BB002D08BA002C086A
:1009F000B9003808C0003708BF003608BE00350807
:100A0000BD0037237808F708031D192D300A33027B
:100A10000319192D310803191B2D0F39330203193E
:100A2000132D03184F2DB11B4F2D311B1B2D2030C3
:100A30004A2D2030B105B11E2A2DB1123008031DF8
:100A4000B1037708B1002D300C1E242D9900310818
:100A5000F700B10130083302031D392D7708B100CA
:100A60002E300C1E312D99003108F7002030B105D1
:100A700000303030B11E4A2DB1123008031DB103D1
:100A80007708B1002D300C1E432D99003108F70076
:100A9000B1013030F70777080C1E4C2D99008310F8
:100AA0003808BC003708BB003608BA003508B90062
:100AB000C001BF01BE010A30BD0037237A08B8006B
:100AC0007908B7007808B6007708B500B30BED2CAD
:100AD000080003081F398300613083168F000F0858
:100AE0008312A0018316031787111930031399008D
:100AF000A6309800903083129800831603170908D7
:100B0000C039890003131F129F1200300317880099
:100B100083128701880189018313DF300313AB003F
:100B20008F28831603170908C039890003131F1281
:100B30009F12013003178800831203131F179F179A
:100B400083169F1783121F140030F8001F08C33943
:100B500078049F009F149F18AB2D83161E088312E4
:100B6000A1001E08A2002208AD002108AC00CD287B
:100B70007A08BC007908BB007808BA007708B90089
:100B8000C001BF012030BE008130BD00EC207A08DA
:100B9000AF007908AE007808AD007708AC007A089D
:100BA000B3007908B2007808B1007708B000B70147
:100BB000C030B6007F30B5008830B40061217A08BB
:100BC000A6007908A5007808A4007708A3002608E5
:100BD000BC002508BB002408BA002308B900C001E6
:100BE000BF010730BE008730BD00EC207A08AF009F
:100BF0007908AE007808AD007708AC007A08B30039
:100C00007908B2007808B1007708B000B701B601E2
:100C10002030B5008130B40061217A08AA0079083B
:100C2000A9007808A8007708A700043003178D00F2
:100C300000308F000313692A053003178D00003040
:100C40008F00031009300313AC00C12289308400E7
:100C50002608AF002508AE002408AD002308AC002C
:100C60000230B00086237630B9003D220130BA0050
:100C70000230BB002B220D3003178D0000308F0097
:100C8000031008300313AC00C122893084002A0805
:100C9000AF002908AE002808AD002708AC000230DC
:100CA000B00086232B08B9003D222030B9003D2238
:100CB0002030B9003D222030B9003D221630031704
:100CC0008D0000308F00031009300313AC0049245D
:100CD000893084002608AF002508AE002408AD0046
:100CE0002308AC000230B000A22476300C1E762E11
:100CF00099000D300C1E7A2E99000A300C1E7E2EA3
:100D000099001F3003178D0000308F00031008304A
:100D10000313AC004924893084002A08AF00290855
:100D2000AE002808AD002708AC000230B000A224B5
:100D30002B080C1E992E99000D300C1E9D2E99002B
:100D40000A300C1EA12E99000430AC00C830BA0045
:0A0D50002820AC0BA62EAA2D63008C
:04400E00E42CFF3F60
:00000001FF
;PIC16F887
;CRC=C0C4  CREATED="28-abr.-24 22:29"
